:100000000C9442000C946A000C946A000C946A00F0
:100010000C946A000C946A000C946A000C946A00B8
:100020000C946A000C94390E0C94620E0C948B0E96
:100030000C942F0F0C94B40E0C94DD0E0C94060F40
:100040000C94BE0D0C94E70D0C94100E0C946A00E9
:100050000C948C0A0C943F080C946A000C946A006F
:100060000C946A000C946A000C946A000C946A0068
:100070000C94610A0C948D080C946A00D301B70AA1
:10008000BC10080211241FBECFEFD0E1DEBFCDBFF0
:1000900012E0A0E0B1E0E2E7FAE202C005900D92C2
:1000A000A236B107D9F714E0A2E6B2E001C01D9272
:1000B000A931B107E1F710E0C2E8D0E004C022970F
:1000C000FE010E944C12CC37D107C9F70E94860767
:1000D0000C942C150C94000083E692E00E94B30B64
:1000E00086EE92E00E94B30B8FED92E00E94B30B7C
:1000F00088ED92E00E94B30B81ED92E00E94B30B79
:1001000089EC92E00C94B30B0F931F93CF93DF9382
:10011000EB018A0142E0BC018DE00E94C10A42E08D
:10012000BE018CE00E94C10A42E0B8018AE0DF9182
:10013000CF911F910F910C94C10AEF920F93E12C74
:1001400001E028E040E855E260E070E083E593E0FC
:100150000E945F09109291023D9A3C9A3A9A3B980C
:100160004FEF50E060E070E080E090E00E9484009B
:1001700062E471E083E692E00E94620C10929202C7
:1001800010928C021092620261E080911B010E9429
:10019000060760E0809119010E9406073F9A509877
:1001A0000F91EF900895EF92FF920F931F93CF93CB
:1001B000DF93CDB7DEB760970FB6F894DEBF0FBE02
:1001C000CDBF7C0162E471E0CE0101960E94240C57
:1001D0008E01085F1F4F20E030E047E050E0B8019B
:1001E000CE0101960E94600D188B0F87AE01415F12
:1001F0005F4F6FE171E0C8010E94A3148C0100976A
:1002000079F0BC01C7010E94620CB80183E593E05C
:100210000E949F0BCE0101960E94B30BC80104C03F
:10022000CE0101960E94B30B60960FB6F894DEBF24
:100230000FBECDBFDF91CF911F910F91FF90EF9037
:1002400008950F931F93CF93DF938C01EB0160E030
:1002500071E00E94E411BE01660F771F6D5F7F4F52
:10026000482F8DEE92E00E94D604A80117FF02C02D
:1002700041505F4F452F550F550BBE016E5F7F4FAD
:10028000660F771F8DEE92E00E94D6048E01D7FF95
:1002900002C0095F1F4F23E0159507952A95E1F7E6
:1002A0001127B8018DEE92E00E94D304482FCE01B1
:1002B00068E070E00E94E41121E030E001C0220F0C
:1002C0008A95EAF7422BB8018DEE92E0DF91CF914B
:1002D0001F910F910C94D6040F931F93CF93DF932C
:1002E0008C01EB0160E071E00E94E411BE01660F39
:1002F000771F6D5F7F4F482F8DEE92E00E94D604EE
:10030000A80117FF02C041505F4F452F550F550BF5
:10031000BE016E5F7F4F660F771F8DEE92E0DF911B
:10032000CF911F910F910C94D6040F931F93CF93ED
:10033000DF938C01EC0197FD279683E0D595C79557
:100340008A95E1F7DD27BE018DEE92E00E94D3048D
:10035000482FC80168E070E00E94E41121E030E01D
:1003600001C0220F8A95EAF74227BE018DEE92E086
:10037000DF91CF911F910F910C94D60440E060E083
:1003800070E08DEE92E00E94D60440E061E070E003
:100390008DEE92E00E94D60440E062E070E08DEEC7
:1003A00092E00C94D604EF920F9362E471E089EC32
:1003B00092E00E94240C61E271E081ED92E00E94E3
:1003C000240C66E271E088ED92E00E94240C6BE25E
:1003D00071E08FED92E00E94240C60E371E086EE04
:1003E00092E00E94240C93E0E92E04E026E031E044
:1003F00049E051E06DE071E08AE692E00E943A0641
:1004000062E471E083E692E00F91EF900C94240C8B
:100410000C946C00CF93DF93D1E01EC083E593E092
:100420000E94B807C82F682F89EC92E00E94C80C80
:10043000CA3091F420E030E042E350E067E972E036
:1004400089EC92E00E94600DD093D00269EC72E0DA
:1004500083E593E00E948B0B83E593E00E948D0778
:10046000892BE1F6DF91CF910895CF92DF92EF9241
:10047000FF921F93CF93DF93CDB7DEB76C970FB684
:10048000F894DEBF0FBECDBF8091910281111EC0D6
:10049000339B4EC00E94D20660938D0270938E02F1
:1004A00080938F029093900211E01093910240E0AC
:1004B00050E06FEF70E080E090E00E9484001093C5
:1004C000920210928C0265E371E02EC0339B1EC035
:1004D0000E94D206C0908D02D0908E02E0908F02D2
:1004E000F09090026C197D098E099F09683873415C
:1004F00081059105E8F040E050E060E070E08FEFAA
:1005000090E00E94840063E471E00EC04FEF50E081
:1005100060E070E080E090E00E948400109292021F
:10052000109291026DE571E083E593E00E949F0BCC
:1005300080E00E946D06BC01882777FD8095982F8A
:100540000E94D1102DEC3CEC4CEA50E40E94811149
:1005500020E030E040E85AE30E948111FB01462F81
:100560005F2F682F792F4093880250938902609300
:100570008A0270938B022AE939E949E95FE36E2F19
:100580007F2F0E94CB10181614F0479A01C047988D
:1005900080916202811107C08AE692E00E94F00415
:1005A0008823C1F007C06BE671E083E593E00E9409
:1005B0009F0BFFCF682FCE0101960E947C0CBE01DD
:1005C0006F5F7F4F83E692E00E94C10CCE010196DF
:1005D0000E94B30B80919202882359F167E871E081
:1005E000CE0101960E94240CBE016F5F7F4F83E60F
:1005F00092E00E943F0D182FCE0101960E94B30B8E
:100600001123B9F01092920269E871E083E593E05A
:100610000E949F0B42984FEF50E060E070E080E056
:1006200090E00E94840062E471E083E692E00E9420
:10063000620C65E971E0CE0101960E94240CBE01B6
:100640006F5F7F4F83E692E00E943F0D882361F049
:1006500011E020916702309168028091D50290915B
:10066000D6028217930708F410E0CE0101960E948B
:10067000B30B112361F062E471E083E692E00E9423
:10068000620C67E971E083E593E00E949F0B209183
:100690006702309168028091D5029091D6022817A6
:1006A000390709F045C08091920281110AC00E9469
:1006B000D20660938D0270938E0280938F02909386
:1006C000900261ED72E083E692E00E940C0D8111D0
:1006D00039C168ED72E083E692E00E940C0D811151
:1006E00031C16FED72E083E692E00E940C0D811142
:1006F00029C16FED72E083E692E00E940C0D81113A
:1007000021C166EE72E083E692E00E940C0D811139
:1007100019C1F0C040E050E060E070E08FEF90E081
:100720000E94840063E471E008C167EA71E005C1DA
:100730008217930708F414C180918C02833050F122
:1007400062E471E083E692E00E94620C10928C02F7
:1007500040E050E060E070E08FEF90E00E948400A5
:1007600064EB71E083E593E00E949F0B60E375E723
:1007700080E090E00E94E4064FEF50E060E070E01F
:1007800080E090E00E94840062EC71E083E593E0F9
:100790000E949F0B809119010E943407E82EF12CD2
:1007A000F0929402E092930281E0E816F10481F461
:1007B00061E080911B010E94580780919502909101
:1007C0009602892BA1F4F0929602E09295020FC056
:1007D00060E080911B010E945807809195029091E2
:1007E0009602019721F410929602109295020E94AF
:1007F0000A028091D002882309F475C062E471E096
:10080000CE0101960E94240C62E471E0CE010896AC
:100810000E94240C62E471E0CE010F960E94240C29
:1008200069EC72E0CE0146960E94580CBE016A5EE9
:100830007F4FCE0101960E94D300CE0146960E94C2
:10084000B30B62ED71E0CE0101960E941D0D811186
:100850000E94BE016DED71E0CE0101960E941D0D5A
:10086000882379F0CE010F960E948A0D6B017C01DE
:10087000CE0108960E948A0DDC01CB01B6010E94D0
:100880006C016DEE71E0CE0101960E941D0D882372
:1008900039F0CE010F960E948A0DCB010E9495017E
:1008A0006DEF71E0CE0101960E941D0D882379F055
:1008B000CE010F960E948A0D6B017C01CE01089635
:1008C0000E948A0DDC01CB01B6010E942101CE01FC
:1008D0000F960E94B30BCE0108960E94B30BCE0177
:1008E00001960E94B30B64E670E080E090E00E9405
:1008F000E4064BC080918C028F5F80938C0262E48F
:1009000071E083E692E00E94620C40E050E060E01B
:1009100070E08FEF90E00E94840068EE73E080E06A
:1009200090E00E94E4064FEF50E060E070E080E06D
:1009300090E00E9484006AE072E083E593E00E9408
:100940009F0BFACE429A81E08093920240E050E001
:100950006FEF70E080E090E00E94840010928C02C3
:100960000E94D206C0908D02D0908E02E0908F023D
:10097000F09090026C197D098E099F0960337547CC
:100980008105910508F0C6CED0CE6C960FB6F894CE
:10099000DEBF0FBECDBFDF91CF911F91FF90EF90D3
:1009A000DF90CF900895CB010C94DF14CB01642F1E
:1009B0000C94E714DC0118968D919C911997861779
:1009C000970769F019967C936E9318975C96ED9152
:1009D000FC915D97309719F01A968C9109940895BF
:1009E0004F925F926F927F92AF92BF92CF92DF92BF
:1009F000EF92FF920F931F93CF93DF93EC01A12C03
:100A0000A8C00A2D10E0EC81FD81E00FF11F60E02D
:100A100080810E945807B12C68018EC0EB2CF12C0C
:100A20008F81E881F981EC0DFD1DB89EE00DF11D6F
:100A300011249A85808198133CC00E94D2064E846E
:100A40005F846888798864197509860997094A8CD2
:100A50005B8C612C712C641575058605970550F02B
:100A6000EA81FB81EE0DFF1D80810E9434078823FF
:100A700009F498C00E94D2064E845F846888798801
:100A80006419750986099709488C598C612C712C59
:100A9000641575058605970508F493C0EA81FB8106
:100AA000EB0DF11D80810E943407813009F089C06F
:100AB0007FC00E94D2064E845F846888798864195A
:100AC000750986099709488C598C612C712C64151D
:100AD00075058605970578F1EA81FB81EE0DFF1D0E
:100AE00080810E943407811126C0EC81FD81E00FD6
:100AF000F11F61E080810E9458072F812E9DC00167
:100B00002F9D900D1124E881F981EC0DFD1DE80F5A
:100B1000F91FF0808E859F85A889B9898A8B9B8B68
:100B2000AC8BBD8B0E94D2066E877F87888B998B9A
:100B3000F11015C005C0B3948E81B81608F46ECFBD
:100B4000EC81FD81E00FF11F61E080810E94580778
:100B5000A3948F81A81608F454CF80E040C08B8501
:100B6000F81239C00E94D2060A891B892C893D8956
:100B7000601B710B820B930B0E891F8920E030E004
:100B8000061717072807390710F525C081E090E000
:100B90009D878C87FA8661E070E0CE010E94DA04BE
:100BA0008A851DC063E070E0CE010E94DA0462CF46
:100BB00062E070E0CE010E94DA048A858B871A8693
:100BC000BFCF88859985039709F0B5CFB9CF8C85BC
:100BD0009D850196DDCF8A85F812D8CFBECFDF91F3
:100BE000CF911F910F91FF90EF90DF90CF90BF902A
:100BF000AF907F906F905F904F900895FF920F930A
:100C00001F93CF93DF93EC01F12C13C00F2D10E055
:100C1000EA81FB81E00FF11F60E080810E940607FE
:100C2000EA81FB81E00FF11F61E080810E9458079B
:100C3000F3948E81F81650F3F12C13C00F2D10E0B1
:100C4000EC81FD81E00FF11F61E080810E940607C9
:100C5000EC81FD81E00FF11F61E080810E94580767
:100C6000F3948F81F81650F3DF91CF911F910F917C
:100C7000FF900895EF920F93FC01538342833583D5
:100C800024830683E7827183608316861786108A21
:100C9000118A128A138A148A158A8CE291E0978B42
:100CA000868B82E390E0918F808F88EE93E0938F24
:100CB000828F158E148E12861386118610861586E5
:100CC0001486CF010F91EF900C94FE0580E4809381
:100CD0007C0087E880937A000895CF93DF931F927A
:100CE000CDB7DEB790911D01913031F489830E9418
:100CF000660610921D018981877020911E0140E4D3
:100D0000249F90011124822B80937C0080917A0093
:100D1000806480937A0080917A0086FDFCCF2091D8
:100D2000780030917900932F80E0FC01E22B9F0145
:100D3000C9010F90DF91CF9108958091EF029091BA
:100D4000F002A091F102B091F2023091EE02232F55
:100D50002D5F2D3720F40196A11DB11D05C0232F55
:100D60002A570296A11DB11D2093EE028093EF0237
:100D70009093F002A093F102B093F2028091F302FB
:100D80009091F402A091F502B091F6020196A11D96
:100D9000B11D8093F3029093F402A093F502B093F7
:100DA000F60208950F931F938FB7F8940091EF0206
:100DB0001091F0022091F1023091F2028FBFB80140
:100DC000C9011F910F9108958F929F92AF92BF9288
:100DD000CF92DF92EF92FF926B017C010E94D206CC
:100DE0004B015C010E94D206681979098A099B09A6
:100DF0006C157D058E059F05A8F3FF90EF90DF90A1
:100E0000CF90BF90AF909F908F900895982F97703C
:100E100021E030E0092E01C0220F0A94EAF78695FE
:100E20008695869581F0813089F0823091F083300B
:100E3000D1F412C080812095822302C08081822B50
:100E400080839FBF0895EAE2F0E008C0E7E2F0E0A7
:100E500005C0E4E2F0E002C0E1E2F0E09FB7F89400
:100E6000662341F3EBCF0895982F977021E030E08F
:100E700001C0220F9A95EAF786958695869539F0F6
:100E8000813041F0823049F0833051F00895E9E239
:100E9000F0E008C0E6E2F0E005C0E3E2F0E002C006
:100EA000E0E2F0E09081922381E009F480E008958F
:100EB000982F977021E030E0092E01C0220F0A948C
:100EC000EAF786958695869581F0813089F08230A3
:100ED00091F08330D1F412C080812095822302C02A
:100EE0008081822B80839FBF0895EBE2F0E008C0F1
:100EF000E8E2F0E005C0E5E2F0E002C0E2E2F0E0A6
:100F00009FB7F894662341F3EBCF08950E94960DA6
:100F10000E949D000E943502FDCFFC01208931898D
:100F2000C9010895DC0150962D913C915197232BD6
:100F300049F05496ED91FC915597E80FF91F2689D9
:100F400030E002C02FEF3FEFC9010895FC01118A84
:100F5000108A158A148A138A128A0895FC01248142
:100F60003581C9010895FC0124813581C9010895A5
:100F7000FC0180899189892BD1F03FB7F894808951
:100F800091890197918B808B84899589DF01A80FC6
:100F9000B91F56962C910196803291051CF4958BC1
:100FA000848B02C0158A148A3FBF30E002C02FEF45
:100FB0003FEFC9010895EF92FF921F93CF93DF9304
:100FC0001F92CDB7DEB77C01D701DA968D919C9147
:100FD000DB974097C8F71FB7F894D696ED91FC9130
:100FE000D7970190F081E02DC701C69669830995D6
:100FF00069814097C8F4F70182AD93AD019693AF34
:1010000082AF84AD95ADE80FF91FE05CFF4F6083C0
:101010000196D701DD969C938E93DC97409724F040
:10102000DD961C921E92DC97F701EA5AFF4F019061
:10103000F081E02D8081806280831FBF81E090E09D
:101040000F90DF91CF911F91FF90EF900895665F11
:101050007F4F680F791FCB010895665F7F4F680F40
:10106000791FCB010895665F7F4F680F791FCB0111
:101070000895665F7F4F680F791FCB0108951F9217
:101080000F920FB60F9211242F938F939F93AF93CC
:10109000BF93EF93FF9380918D0390918E03892BE3
:1010A00021F1E091AD03F091AE0380918D03909119
:1010B0008E03019790938E0380938D03809191030B
:1010C00090919203DC01A757BC4F1A962C91019680
:1010D000803191052CF4909392038093910304C086
:1010E0001092920310929103208380918D0390912E
:1010F0008E03892B31F4E091A903F091AA0388E9CA
:101100008083FF91EF91BF91AF919F918F912F912C
:101110000F900FBE0F901F9018951F920F920FB651
:101120000F9211242F938F939F93AF93BF93EF93BD
:10113000FF938091310390913203892B21F1E0914B
:101140005103F09152038091310390913203019742
:10115000909332038093310380913503909136034D
:10116000DC01A35DBC4F1A962C910196803191054C
:101170002CF4909336038093350304C01092360309
:101180001092350320838091310390913203892B93
:1011900031F4E0914D03F0914E0388E98083FF9193
:1011A000EF91BF91AF919F918F912F910F900FBEB3
:1011B0000F901F901895FC01262F1382128248EE83
:1011C00053E060E070E044835583668377838DE26B
:1011D00092E0918380838DE392E09587848780E21B
:1011E00090E097878687118A108A158A148A138A55
:1011F000128A87E492E097AB86AB80E190E091AFF2
:1012000080AF13AE12AE17AE16AE15AE14AE2223DB
:1012100021F0213009F052C028C0DF01A05BBF4F90
:1012200085EC90E08D939C93DF01AE5ABF4F84EC28
:1012300090E08D939C93DF01AC5ABF4F80EC90E01F
:101240008D939C93DF01AA5ABF4F81EC90E08D9360
:101250009C93DF01A85ABF4F82EC90E08D939C9342
:10126000E65AFF4F86EC90E027C0DF01A05BBF4F3E
:101270008DEC90E08D939C93DF01AE5ABF4F8CECC8
:1012800090E08D939C93DF01AC5ABF4F88EC90E0C7
:101290008D939C93DF01AA5ABF4F89EC90E08D9308
:1012A0009C93DF01A85ABF4F8AEC90E08D939C93EA
:1012B000E65AFF4F8EEC90E09183808308953F9231
:1012C0004F925F926F927F928F929F92AF92BF9256
:1012D000CF92DF92EF92FF920F931F93CF93DF9302
:1012E000EC014A015B01122F3E2C60E072E18AE7BB
:1012F00090E0A50194010E94F81169017A0184E04F
:10130000C80ED11CE11CF11C83E0F694E794D7943D
:10131000C7948A95D1F760E074E284EF90E0A5016C
:1013200094010E94F81129013A0194E0490E511CE0
:10133000611C711C93E076946794579447949A9536
:10134000D1F7A30192014427552760E874E88EE1A4
:1013500090E00E941A125901A818B908B7FE03C0FC
:10136000B194A194B108A70196014427552760E4E0
:1013700072E48FE090E00E941A122819390937FFB1
:1013800003C0319521953109FE01EC5AFF4F0190C0
:10139000F081E02DA216B3063CF482E08083620166
:1013A00081E0C81AD10804C0108291E0C91AD1089E
:1013B0001630C1F018F4153099F405C0173029F033
:1013C000193071F404C080E00EC084E00CC0FE014E
:1013D000EA5AFF4F0190F081E02D80818460808384
:1013E00086E001C082E0023009F4886091E039169D
:1013F00021F092E0391204C002C0806301C0806213
:10140000FE01E85AFF4F0190F081E02D8083FE013C
:10141000E05BFF4F0190F081E02DD082FE01EE5A9B
:10142000FF4F0190F081E02DC082CA5ADF4FE88162
:10143000F98188E98083DF91CF911F910F91FF900F
:10144000EF90DF90CF90BF90AF909F908F907F9064
:101450006F905F904F903F9008950F931F93CF939D
:10146000DF931F92CDB7DEB78C01DC01ED91FC91CB
:101470000190F081E02D6983099569818097D0F40E
:10148000F801848195810196958384838681978173
:10149000E80FF91F628701968032910534F4D80174
:1014A00017969C938E93169703C0F80117821682A5
:1014B00081E001C080E00F90DF91CF911F910F91EB
:1014C00008951F920F920FB60F9211242F933F93FE
:1014D0004F935F936F937F938F939F93AF93BF933C
:1014E000EF93FF93E0915103F0915203608183E009
:1014F00093E00E942D0AFF91EF91BF91AF919F91D0
:101500008F917F916F915F914F913F912F910F90AC
:101510000FBE0F901F9018951F920F920FB60F924B
:1015200011242F933F934F935F936F937F938F93E8
:101530009F93AF93BF93EF93FF93E091AD03F0912F
:10154000AE0360818FE593E00E942D0AFF91EF9139
:10155000BF91AF919F918F917F916F915F914F91CB
:101560003F912F910F900FBE0F901F90189560E044
:1015700083E593E00E94DB0861E087EF92E00C9442
:10158000DB081F93CF93DF93182FEB01209721F4F3
:1015900060E00E94580740E0143079F1153029F1DD
:1015A0001630E9F1173099F1133169F0143109F06F
:1015B00044C011C060E001C061E0812FDF91CF9194
:1015C0001F910C94580760E083EF93E00E946B102A
:1015D000AE0160E007C061E083EF93E00E946B1012
:1015E000AE0161E083EF93E023C060E081ED93E022
:1015F0000E946B10AE0160E007C061E081ED93E0F6
:101600000E946B10AE0161E081ED93E011C060E0DB
:101610008FEA93E00E946B10AE0160E007C061E0CA
:101620008FEA93E00E946B10AE0161E08FEA93E0D5
:10163000DF91CF911F910C949810C038D10508F418
:10164000B9CFBACFCF92DF92EF92FF920F931F9351
:10165000CF93DF936C01EB017A01E60EF71E00E0F9
:1016600010E00BC06991D601ED91FC910190F081E1
:10167000E02DC6010995080F191FCE15DF0591F75A
:10168000C801DF91CF911F910F91FF90EF90DF90F4
:10169000CF9008956115710581F0DB010D90002058
:1016A000E9F7AD0141505109461B570BDC01ED91A3
:1016B000FC910280F381E02D099480E090E0089590
:1016C000DC01ED91FC910190F081E02D0994DC01A9
:1016D000ED91FC91DB0114964D915C9115976D9104
:1016E0007C910280F381E02D09940F931F93CF9397
:1016F000DF93EC016DE00E94600B8C016AE0CE018B
:101700000E94600B9C01200F311FC901DF91CF9116
:101710001F910F9108950F931F93CF93DF93EC01C7
:101720000E94670B8C01CE010E94750B9C01200F5B
:10173000311FC901DF91CF911F910F9108950F9330
:101740001F93CF93DF93EC010E944A0B8C01CE01D3
:101750000E94750B9801280F391FC901DF91CF91A5
:101760001F910F910895FC01808191810C94EB12DF
:10177000CF93DF93EC0188819981009711F00E944B
:10178000EB12198218821D821C821B821A82DF9141
:10179000CF9108950F931F93CF93DF93EC018B01AB
:1017A0006F5F7F4F888199810E948813009731F085
:1017B000998388831B830A8381E001C080E0DF91E5
:1017C000CF911F910F910895CF93DF93EC01888102
:1017D0009981892B31F08A819B818617970708F0C0
:1017E0000CC0CE010E94CA0B882349F08C819D81D8
:1017F000892B19F4E881F981108281E001C080E031
:10180000DF91CF910895EF92FF920F931F93CF93A3
:10181000DF93EC017B018A01BA010E94E40B811184
:1018200004C0CE010E94B80B07C01D830C83B70112
:10183000888199810E948D14CE01DF91CF911F91F3
:101840000F91FF90EF900895DC0111961C921E926B
:1018500013961C921E92129715961C921E92149724
:1018600016961C926115710559F0DB010D90002050
:10187000E9F7AD0141505109461B570B0C94030C7D
:101880000895CF93DF93EC01FB018617970761F072
:10189000608171816115710529F0448155810E9433
:1018A000030C02C00E94B80BCE01DF91CF910895C6
:1018B000FC01118210821382128215821482168218
:1018C0000C94410CCF93DF93D82FC92F611571056C
:1018D00061F0DB010D900020E9F7AD0141505109A5
:1018E000461B570B0E94030C02C00E94B80B8D2FA1
:1018F0009C2FDF91CF910895CF93DF9300D0CDB788
:10190000DEB7FC01118210821382128215821482CA
:10191000168269831A82BE016F5F7F4F0E94620C3C
:101920000F900F90DF91CF910895EF92FF920F9358
:101930001F93CF93DF93EC017B010C811D81611517
:10194000710511F480E016C04115510591F0040FA6
:10195000151FB8010E94E40B8823A1F32881398167
:101960008C819D81B701820F931F0E948D141D836E
:101970000C8381E0DF91CF911F910F91FF90EF9049
:101980000895FB0144815581608171810C94950C0F
:10199000CF93DF9300D0CDB7DEB769831A8241E0E1
:1019A00050E0BE016F5F7F4F0E94950C0F900F902B
:1019B000DF91CF910895CF93DF93DC01ED91FC91FE
:1019C000EB01A881B981309711F01097C9F41097F5
:1019D00059F0EB012C813D81232B31F02C9130E02B
:1019E00031952195310914C0309781F0DC011496AE
:1019F0008D919C911597892B49F0208130E008C08A
:101A0000BD01CF01DF91CF910C94841420E030E030
:101A1000C901DF91CF910895FC0144815581FB01FB
:101A2000248135814217530729F40E94DB0C21E001
:101A3000892B09F020E0822F0895DC0114962D9166
:101A40003C911597232B39F481E06115710511F054
:101A5000FB0108C00895DC01ED91FC916115710551
:101A600029F481E09081992349F007C0CF010E94B9
:101A700084149C0181E0232B09F080E00895FC018F
:101A800084819581DB0114964D915C9115978417A3
:101A90009507A0F0208131812115310579F06D91F4
:101AA0007C916115710551F0841B950B820F931F7A
:101AB0000E9484149C0181E0232B09F080E00895AA
:101AC0000F931F93CF93DF93EB0141155105E9F07D
:101AD0002097D9F0FC01048115812017310708F007
:101AE00013C041505109021B130B4017510708F452
:101AF0008A01FC0160817181620F731FA801CE0110
:101B00000E949414C00FD11F1882DF91CF911F91B2
:101B10000F910895FC0180819181009711F00C9440
:101B2000541460E070E080E090E0089563E083EF9B
:101B300093E00E94551021E04DE956E060E083EF0C
:101B400093E00E942B1064E083EF93E00E94580F13
:101B500061E081ED93E00E94551064E081ED93E037
:101B60000E94580F61E08FEA93E00E94551064E0F4
:101B70008FEA93E00E94580F789408951F920F9275
:101B80000FB60F9211242F933F934F935F936F9350
:101B90007F938F939F93AF93BF93EF93FF93E091C6
:101BA0000D04F0910E04309709F00995FF91EF9123
:101BB000BF91AF919F918F917F916F915F914F9165
:101BC0003F912F910F900FBE0F901F9018951F926D
:101BD0000F920FB60F9211242F933F934F935F9361
:101BE0006F937F938F939F93AF93BF93EF93FF93E5
:101BF000E0910F04F0911004309709F00995FF91DE
:101C0000EF91BF91AF919F918F917F916F915F9174
:101C10004F913F912F910F900FBE0F901F901895ED
:101C20001F920F920FB60F9211242F933F934F9351
:101C30005F936F937F938F939F93AF93BF93EF9334
:101C4000FF93E0910B04F0910C04309709F0099593
:101C5000FF91EF91BF91AF919F918F917F916F9184
:101C60005F914F913F912F910F900FBE0F901F905A
:101C700018951F920F920FB60F9211242F933F9336
:101C80004F935F936F937F938F939F93AF93BF9384
:101C9000EF93FF93E091C903F091CA03309709F0E5
:101CA0000995FF91EF91BF91AF919F918F917F9196
:101CB0006F915F914F913F912F910F900FBE0F90B9
:101CC0001F9018951F920F920FB60F9211242F9309
:101CD0003F934F935F936F937F938F939F93AF93B4
:101CE000BF93EF93FF93E091CB03F091CC03309738
:101CF00009F00995FF91EF91BF91AF919F918F915D
:101D00007F916F915F914F913F912F910F900FBEF7
:101D10000F901F9018951F920F920FB60F921124DB
:101D20002F933F934F935F936F937F938F939F93E3
:101D3000AF93BF93EF93FF93E091C703F091C80374
:101D4000309709F00995FF91EF91BF91AF919F9165
:101D50008F917F916F915F914F913F912F910F9054
:101D60000FBE0F901F9018951F920F920FB60F92F3
:101D700011242F933F934F935F936F937F938F9390
:101D80009F93AF93BF93EF93FF93E091EB03F09199
:101D9000EC03309709F00995FF91EF91BF91AF9156
:101DA0009F918F917F916F915F914F913F912F9173
:101DB0000F900FBE0F901F9018951F920F920FB6A5
:101DC0000F9211242F933F934F935F936F937F93C1
:101DD0008F939F93AF93BF93EF93FF93E091ED03A6
:101DE000F091EE03309709F00995FF91EF91BF91C3
:101DF000AF919F918F917F916F915F914F913F91A3
:101E00002F910F900FBE0F901F9018951F920F9259
:101E10000FB60F9211242F933F934F935F936F93BD
:101E20007F938F939F93AF93BF93EF93FF93E09133
:101E3000E903F091EA03309709F00995FF91EF91DA
:101E4000BF91AF919F918F917F916F915F914F91D2
:101E50003F912F910F900FBE0F901F9018951F92DA
:101E60000F920FB60F9211242F933F934F935F93CE
:101E70006F937F938F939F93AF93BF93EF93FF9352
:101E8000E091F103F091F203309709F00995FF9189
:101E9000EF91BF91AF919F918F917F916F915F91E2
:101EA0004F913F912F910F900FBE0F901F9018955B
:101EB000DC012C916150223039F4673068F4E62F50
:101EC000F0E0E35BFD4F06C0693030F4E62FF0E050
:101ED000EC5AFD4F208101C020E0DC011A96ED9103
:101EE000FC911B978081887F822B80830895CF93FC
:101EF000DF93EC016883613011F120F0623009F06A
:101F00006CC048C01B821A8286E490E09D838C835B
:101F10008EE690E09F838E8384E490E099878887A3
:101F200085E490E09B878A871D861C8687E490E085
:101F30009F878E87198A188A88E490E022C08FE6EE
:101F400090E09F838E8385E890E09B838A8384E87A
:101F500090E09D838C8380E890E09987888781E872
:101F600090E09B878A8789E890E09D878C8788E846
:101F700090E09F878E878BE890E0998B888B8AE82A
:101F800090E09B8B8A8B1D8A1C8A1F8A1E8A82E0A6
:101F9000898323C01B821A8282EB90E09D838C830D
:101FA00080E790E09F838E8380EB90E0998788871D
:101FB00081EB90E09B878A871D861C8683EB90E0EF
:101FC0009F878E87198A188A84EB90E09B8B8A8B77
:101FD0001D8A1C8A1F8A1E8A698360E0CE010E94C6
:101FE000580FEA81FB81309709F01082EC81FD8166
:101FF0001082198E188E1B8E1A8E1D8E1C8E1F8EAF
:102000001E8E19A218A2DF91CF91089551E04111BF
:1020100001C050E06530F0F4E62FF0E0E35AFD4FE8
:10202000408147FD17C0DC011696ED91FC91179792
:10203000808121E030E0042E01C0220F0A94EAF7EB
:1020400020952823852F042E01C0880F0A94EAF7D3
:10205000282B20830895623099F028F4662341F0FC
:102060006130C9F409C0633079F06430A1F410C064
:10207000FC01518F408F0FC0FC01538F428F0BC06A
:10208000FC01558F448F07C0FC01578F468F03C05A
:10209000FC0151A340A3452B11F440E003C02223CF
:1020A00019F041E00C9406100895DC011896ED91AA
:1020B000FC9119973081262F23703C7F232B20839E
:1020C0001A96ED91FC911B9780816C70660F877E4C
:1020D000682B60830895FC018181681740F5908129
:1020E000992311F0923011F4813049F0662329F0E0
:1020F000613029F0623031F404C026E003C024E0EE
:1021000001C022E00084F185E02D308183E090E081
:10211000022E01C0880F0A94EAF78095832343704A
:10212000022E01C0440F0A94EAF7842B808308959D
:10213000FC0181816817F8F4611109C0A485B58597
:10214000109709F05C930684F785E02D13C0613089
:1021500049F4A089B189109709F05C930288F3894A
:10216000E02D08C0623039F4A489B5895C930688F3
:10217000F789E02D4083089560E083EF93E00E94AB
:10218000770F61E081ED93E00E94770F62E08FEAC4
:1021900093E00C94770F40D008F481E00895E89420
:1021A00009C097FB3EF490958095709561957F4F9F
:1021B0008F4F9F4F9923A9F0F92F96E9BB2793954D
:1021C000F695879577956795B795F111F8CFFAF45D
:1021D000BB0F11F460FF1BC06F5F7F4F8F4F9F4F8E
:1021E00016C0882311F096E911C0772321F09EE8EC
:1021F000872F762F05C0662371F096E8862F70E052
:1022000060E02AF09A95660F771F881FDAF7880F2B
:102210009695879597F90895990F0008550FAA0B81
:10222000E0E8FEEF16161706E807F907C0F01216E9
:102230001306E407F50798F0621B730B840B950BEC
:1022400039F40A2661F0232B242B252B21F4089541
:102250000A2609F4A140A6958FEF811D811D0895DE
:1022600097F99F6780E870E060E008959FEF80EC49
:10227000089500240A9416161706180609060895EC
:1022800000240A9412161306140605060895092E52
:102290000394000C11F4882352F0BB0F40F4BF2BC1
:1022A00011F460FF04C06F5F7F4F8F4F9F4F089501
:1022B00057FD9058440F551F59F05F3F71F04795F7
:1022C000880F97FB991F61F09F3F79F087950895DC
:1022D000121613061406551FF2CF4695F1DF08C0FB
:1022E000161617061806991FF1CF86957105610518
:1022F00008940895E894BB2766277727CB0197F9C0
:1023000008950BD0C4CFB5DF28F0BADF18F09523BD
:1023100009F0A6CFABCF1124EECFCADFA0F3959F73
:10232000D1F3950F50E0551F629FF001729FBB27BC
:10233000F00DB11D639FAA27F00DB11DAA1F649F68
:102340006627B00DA11D661F829F2227B00DA11D1B
:10235000621F739FB00DA11D621F839FA00D611DA1
:10236000221F749F3327A00D611D231F849F600DC2
:10237000211D822F762F6A2F11249F5750408AF0FB
:10238000E1F088234AF0EE0FFF1FBB1F661F771F87
:10239000881F91505040A9F79E3F510570F060CFC3
:1023A000AACF5F3FECF3983EDCF38695779567956F
:1023B000B795F795E7959F5FC1F7FE2B880F911DA5
:1023C0009695879597F9089597FB072E16F4009434
:1023D00007D077FD09D00E94361207FC05D03EF4E5
:1023E000909581959F4F0895709561957F4F0895C1
:1023F000A1E21A2EAA1BBB1BFD010DC0AA1FBB1F09
:10240000EE1FFF1FA217B307E407F50720F0A21B7A
:10241000B30BE40BF50B661F771F881F991F1A94E7
:1024200069F760957095809590959B01AC01BD0111
:10243000CF010895052E97FB16F4009407D057FDA1
:102440000DD00E94F81107FC09D07EF4909580957C
:10245000709561957F4F8F4F9F4F08955095409590
:10246000309521953F4F4F4F5F4F0895AA1BBB1BDF
:1024700051E107C0AA1FBB1FA617B70710F0A61B84
:10248000B70B881F991F5A95A9F780959095BC01A5
:10249000CD010895EE0FFF1F0590F491E02D0994F2
:1024A0000F931F93CF93DF938230910510F482E056
:1024B00090E0E0911704F091180420E030E0C0E0D3
:1024C000D0E023C04081518148175907A8F0481730
:1024D000590761F482819381209719F09B838A8345
:1024E0002EC0909318048093170429C0211531053C
:1024F00029F04217530710F0A90102C0BE01DF0105
:1025000002811381EF019A01F8013097D9F6211564
:10251000310509F1281B390B2430310590F412964E
:102520008D919C9113976115710521F0FB019383A7
:10253000828304C09093180480931704FD0132969F
:1025400044C0FD01E20FF31F8193919322503109A2
:102550002D933C933AC02091150430911604232BFF
:1025600041F420910201309103013093160420932D
:10257000150420910001309101012115310541F42C
:102580002DB73EB74091040150910501241B350B36
:10259000E0911504F0911604E217F307A0F42E1B46
:1025A0003F0B2817390778F0AC014E5F5F4F2417B7
:1025B000350748F04E0F5F1F5093160440931504E3
:1025C0008193919302C0E0E0F0E0CF01DF91CF91E1
:1025D0001F910F910895EF92FF920F931F93CF9346
:1025E000DF93009709F48FC0DC01129713961C92B9
:1025F0001E921297E0901704F0901804E114F10471
:1026000089F42D913C911197280F391F8091150461
:10261000909116048217930789F5B0931604A0933E
:10262000150471C0E70120E030E001C0EA01CA17DB
:10263000DB0738F44A815B819E0141155105B1F7F2
:1026400022C0BC0162507109FB01D383C2830081A7
:102650001181AC01400F511F4C175D0761F4488197
:102660005981400F511F4E5F5F4F518340834A8114
:102670005B81538342832115310529F4B0931804FB
:10268000A093170440C0F901B383A283E9016991C3
:102690007991C60FD71FAC17BD0779F4DC015E91A5
:1026A0004E91460F571F4E5F5F4F518340831296E6
:1026B0008D919C91139793838283A0E0B0E002C038
:1026C000D7017C01F701828193810097C9F7C70187
:1026D000029620813181820F931F20911504309141
:1026E00016042817390779F4109729F41092180462
:1026F0001092170404C013961C921E921297F09227
:102700001604E0921504CDB7DEB7E6E00C941D1573
:10271000A0E0B0E0EEE8F3E10C94FB14EC010097CC
:1027200029F4CB010E945012EC01B8C0DC01A60FC5
:10273000B71FFC013297AE17BF0718F4C0E0D0E016
:10274000ADC00081118106171707B0F005301105E3
:1027500008F4A4C0C80104978617970708F49EC020
:1027600002501109061B170B0D931D937183608393
:10277000CD010E94EB1292C07B01E01AF10A5C01CC
:10278000A00EB11EE0911704F0911804812C912C39
:1027900080E090E04CC0EA15FB05F1F540815181E5
:1027A0006A0122E0C20ED11CCE14DF04A8F19A0106
:1027B0002E193F097901690132E0C30ED11C2EEFB9
:1027C000A22EBB24BA94AC0EBD1E25E0C216D104C5
:1027D00078F04281538113965C934E931297119631
:1027E000FC92EE92F501718360833A2F2B2F09C082
:1027F0000E5F1F4F040F151FD5010D931C933281DF
:102800002381009721F0FC013283238347C030935A
:1028100017042093180442C080819181881699067C
:1028200008F44C0152814381CF01E52FF42F3097FA
:1028300009F0B1CF80911504909116048A159B057B
:10284000F1F486169706D8F4809100019091010169
:10285000009741F48DB79EB7209104013091050196
:10286000821B930BA817B90708F068CFB093160422
:10287000A0931504FE013297718360830FC0CB01D2
:102880000E9450127C01009709F458CFA801BE01A4
:102890000E947B14CE010E94EB12E701CE01CDB75E
:1028A000DEB7ECE00C9417151F93FC0199278827DD
:1028B000BC01E89411911032E9F3193010F01E3088
:1028C000C8F31B3251F01D3249F4689406C00E94CF
:1028D000CA14610F711D811D911D119110531A3081
:1028E000B0F33EF490958095709561957F4F8F4F32
:1028F0009F4F1F910895FB01DC0102C001900D92D2
:1029000041505040D8F70895FB01DC018D910190B2
:1029100080190110D9F3990B0895FB01DC01019096
:102920000D920020E1F70895FB01DC014150504079
:1029300048F001900D920020C9F701C01D9241504E
:102940005040E0F70895FA01A191B081009719F481
:102950001097E1F0CD01DC01CD010D90002011F4C4
:10296000C00113C0FB012191222319F02015D9F7D2
:10297000F3CFFB012191201519F41E92119606C088
:102980002223C1F70D900020A1F7D001FA01A193F5
:10299000B0830895592F482F372F262F660F771FA2
:1029A000881F991F660F771F881F991F620F731F5B
:1029B000841F951F660F771F881F991F0895F99927
:1029C000FECF92BD81BDF89A992780B50895262F34
:1029D000F999FECF1FBA92BD81BD20BD0FB6F89404
:1029E000FA9AF99A0FBE019608952F923F924F924C
:1029F0005F926F927F928F929F92AF92BF92CF928F
:102A0000DF92EF92FF920F931F93CF93DF93CDB797
:102A1000DEB7CA1BDB0B0FB6F894DEBF0FBECDBF0F
:102A200009942A88398848885F846E847D848C84E0
:102A30009B84AA84B984C884DF80EE80FD800C81E9
:102A40001B81AA81B981CE0FD11D0FB6F894DEBFCC
:102A50000FBECDBFED01089510E0C2E8D0E004C084
:102A6000FE010E944C122296C438D107C9F7F8948F
:022A7000FFCF96
:102A72000000190420000504030908070631323357
:102A82003435363738392A302302000E0001013B33
:102A920000313233340035363738003737373700B4
:102AA2003636363600446F6F72206F70656E65641D
:102AB200212100446F6F72206F70656E656420661D
:102AC2006F7220746F6F206C6F6E672100446F6F9E
:102AD2007220636C6F7365642121004E756D6265AF
:102AE20072206F6620617474656D707473206578EE
:102AF200636565646564002A00446F6F7220636CCD
:102B02006F736564002300417474656D7074206492
:102B1200656C6574656400446F6F72206F70656EDA
:102B22006564210053797374656D206C6F636B6506
:102B3200640053797374656D20756E6C6F636B6599
:102B4200640044454C4554455F414C4C005550444B
:102B52004154455F50415353574F52440044454CF2
:102B62004554455F50415353574F524400414444EA
:102B72005F50415353574F524400496E74656E740F
:102B82006F20646520617065727475726120736F65
:102B920073706563686F73610000000000DB0722D9
:102BA2000B8D079207B807A60700000000B3073392
:102BB20008390800000000AE0727082D08010203AB
:102BC20004050607010200030004050607000102CE
:022BD2000305F9
:00000001FF
