:100000000C9442000C946A000C946A000C946A00F0
:100010000C946A000C946A000C946A000C946A00B8
:100020000C946A000C94B90E0C94E20E0C940B0F15
:100030000C94AF0F0C94340F0C945D0F0C94860F3E
:100040000C943E0E0C94670E0C94900E0C946A0067
:100050000C94C80A0C947B080C946A000C946A00F7
:100060000C946A000C946A000C946A000C946A0068
:100070000C949D0A0C94C9080C946A00D201F30AEE
:100080003C11070211241FBECFEFD0E1DEBFCDBF70
:1000900012E0A0E0B1E0EEEBFBE202C005900D92B1
:1000A000A438B107D9F714E0A4E8B2E001C01D926A
:1000B000AB33B107E1F710E0C2E8D0E004C022970B
:1000C000FE010E94CC12CC37D107C9F70E94C207AB
:1000D0000C94D2150C94000085E892E00E94EF0B7E
:1000E00088E093E00E94EF0B81E093E00E94EF0B29
:1000F0008AEF92E00E94EF0B83EF92E00E94EF0BF9
:100100008BEE92E00C94EF0B0F931F93CF93DF9342
:10011000EB018A0142E0BC018DE00E94FD0A42E051
:10012000BE018CE00E94FD0A42E0B8018AE0DF9146
:10013000CF911F910F910C94FD0AEF920F93E12C38
:1001400001E028E040E855E260E070E085E793E0F8
:100150000E949B091092B3023D9A3C9A3A9A3B98AE
:100160004FEF50E060E070E080E090E00E9484009B
:100170006AE472E085E892E00E949E0C1092B4025C
:100180001092AE021092840261E080911B010E94E5
:10019000420760E0809119010E9442073F9A5098FF
:1001A0000F91EF900895EF92FF920F931F93CF93CB
:1001B000DF93CDB7DEB760970FB6F894DEBF0FBE02
:1001C000CDBF7C016AE472E0CE0101960E94600C12
:1001D0008E01085F1F4F20E030E047E050E0B8019B
:1001E000CE0101960E94E00D188B0F8787010BC08E
:1001F000B701C8010E949E0CB70185E793E00E94F9
:10020000DB0B095F1F4FAE01415F5F4F6FE171E094
:100210008F8598890E9423157C01009749F7CE01AC
:1002200001960E94EF0B60960FB6F894DEBF0FBEEA
:10023000CDBFDF91CF911F910F91FF90EF90089567
:100240000F931F93CF93DF938C01EB0160E071E07C
:100250000E946412BE01660F771F6D5F7F4F482FAB
:100260008FE093E00E941205A80117FF02C04150E1
:100270005F4F452F550F550BBE016E5F7F4F660FC9
:10028000771F8FE093E00E9412058E01D7FF02C016
:10029000095F1F4F23E0159507952A95E1F7112770
:1002A000B8018FE093E00E940F05482FCE0168E06F
:1002B00070E00E94641221E030E001C0220F8A95B4
:1002C000EAF7422BB8018FE093E0DF91CF911F91C5
:1002D0000F910C9412050F931F93CF93DF938C0112
:1002E000EB0160E071E00E946412BE01660F771FAF
:1002F0006D5F7F4F482F8FE093E00E941205A801A9
:1003000017FF02C041505F4F452F550F550BBE01DF
:100310006E5F7F4F660F771F8FE093E0DF91CF9185
:100320001F910F910C9412050F931F93CF93DF939E
:100330008C01EC0197FD279683E0D595C7958A95AA
:10034000E1F7DD27BE018FE093E00E940F05482F03
:10035000C80168E070E00E94641221E030E001C052
:10036000220F8A95EAF74227BE018FE093E0DF91E2
:10037000CF911F910F910C94120540E060E070E066
:100380008FE093E00E94120540E061E070E08FE0B2
:1003900093E00E94120540E062E070E08FE093E09D
:1003A0000C941205EF920F936AE472E08BEE92E0E8
:1003B0000E94600C61E271E083EF92E00E94600CA9
:1003C00066E271E08AEF92E00E94600C6BE271E0FD
:1003D00081E093E00E94600C60E371E088E093E0CC
:1003E0000E94600C93E0E92E04E026E031E049E051
:1003F00051E06DE071E08CE892E00E9476066AE4DC
:1004000072E085E892E00F91EF900C94600C0C94F0
:100410006C00CF93DF93D1E024C085E793E00E9486
:10042000F407C82F682F8BEE92E00E94320DCA307D
:10043000C1F420E030E042E350E069EB72E08BEE83
:1004400092E00E94E00DD093F20265E371E085E74F
:1004500093E00E94DB0B6BEE72E085E793E00E9475
:10046000C70B85E793E00E94C907892BB1F6DF919E
:10047000CF910895CF92DF92EF92FF921F93CF9387
:10048000DF93CDB7DEB7A3970FB6F894DEBF0FBEEC
:10049000CDBF8091B30281111EC0339B4EC00E941C
:1004A0000E076093AF027093B0028093B1029093F5
:1004B000B20211E01093B30240E050E06FEF70E041
:1004C00080E090E00E9484001093B4021092AE028B
:1004D0006FE371E02EC0339B1EC00E940E07C090D8
:1004E000AF02D090B002E090B102F090B2026C196D
:1004F0007D098E099F096838734181059105E8F0EF
:1005000040E050E060E070E08FEF90E00E948400F7
:100510006DE471E00EC04FEF50E060E070E080E00D
:1005200090E00E9484001092B4021092B30267E639
:1005300071E085E793E00E94DB0B80E00E94A90652
:10054000BC01882777FD8095982F0E9451112DECD2
:100550003CEC4CEA50E40E94011220E030E040E81C
:100560005AE30E940112FB01462F5F2F682F792F5B
:100570004093AA025093AB026093AC027093AD0219
:100580002AE939E949E95FE36E2F7F2F0E944B1179
:10059000181644F0479A65E771E085E793E00E94FA
:1005A000DB0B01C0479880918402811107C08CE861
:1005B00092E00E942C058823F1F007C065E871E005
:1005C00085E793E00E94DB0BFFCF682FCE010196F9
:1005D0000E94E60CBE016F5F7F4F85E892E00E94AB
:1005E0002B0DCE0101960E94EF0B65E872E085E7C6
:1005F00093E00E94C70B8091B402882359F161EA0D
:1006000071E0CE0101960E94600CBE016F5F7F4FCA
:1006100085E892E00E94BF0D182FCE0101960E943E
:10062000EF0B1123B9F01092B40263EA71E085E791
:1006300093E00E94DB0B42984FEF50E060E070E0E7
:1006400080E090E00E9484006AE472E085E892E035
:100650000E949E0C6FEA71E0CE0101960E94600C30
:10066000BE016F5F7F4F85E892E00E94BF0D882337
:1006700061F011E02091890230918A028091F702A5
:100680009091F8028217930708F410E0CE010196CA
:100690000E94EF0B112361F06AE472E085E892E0BA
:1006A0000E949E0C61EB71E085E793E00E94DB0BFA
:1006B0002091890230918A028091F7029091F8028C
:1006C0002817390709F049C08091B40281110AC086
:1006D0000E940E076093AF027093B0028093B10244
:1006E0009093B20263EF72E085E892E00E948C0D75
:1006F000811164C16AEF72E085E892E00E948C0D7E
:1007000081115CC161E073E085E892E00E948C0D8C
:10071000811154C161E073E085E892E00E948C0D84
:1007200081114CC168E073E085E892E00E948C0D75
:10073000811144C100C140E050E060E070E08FEF03
:1007400090E00E9484006DE471E002C06FE371E00C
:1007500085E793E00E94DB0B04C08217930708F43F
:100760003BC18091AE02833050F16AE472E085E8CB
:1007700092E00E949E0C1092AE0240E050E060E0D9
:1007800070E08FEF90E00E94840061EC71E085E7FB
:1007900093E00E94DB0B60E375E780E090E00E944D
:1007A00020074FEF50E060E070E080E090E00E94B2
:1007B00084006FEC71E085E793E00E94DB0B809191
:1007C00019010E947007E82EF12CF092B602E09217
:1007D000B50281E0E816F104B1F461E080911B01FB
:1007E0000E9494078091B7029091B802892B01F57D
:1007F0006FED71E085E793E00E94DB0BF092B802A9
:10080000E092B70215C060E080911B010E9494073E
:100810008091B7029091B802019751F460EF71E0B6
:1008200085E793E00E94DB0B1092B8021092B702AA
:100830000E9409028091F202882309F475C06AE4DB
:1008400072E0CE0101960E94600C6AE472E0CE0173
:1008500008960E94600C6AE472E0CE010F960E9436
:10086000600C6BEE72E0CE0146960E94940CBE01C5
:100870006A5E7F4FCE0101960E94D300CE0146965C
:100880000E94EF0B6EEF71E0CE0101960E949D0D6C
:1008900081110E94BD0169E072E0CE0101960E94C3
:1008A0009D0D882379F0CE010F960E940A0E6B01F0
:1008B0007C01CE0108960E940A0EDC01CB01B60134
:1008C0000E946B0169E172E0CE0101960E949D0DCC
:1008D000882339F0CE010F960E940A0ECB010E94A8
:1008E000940169E272E0CE0101960E949D0D882379
:1008F00079F0CE010F960E940A0E6B017C01CE01A9
:1009000008960E940A0EDC01CB01B6010E9420016C
:10091000CE010F960E94EF0BCE0108960E94EF0BBE
:10092000CE0101960E94EF0B64E670E080E090E05B
:100930000E94200766C08091AE028F5F8093AE0256
:100940006AE472E085E892E00E949E0C40E050E08C
:1009500060E070E08FEF90E00E94840068EE73E04A
:1009600080E090E00E9420074FEF50E060E070E0F0
:1009700080E090E00E9484004AE06091AE02CE01E7
:1009800001960E94B80C66E372E0CE014D960E947B
:10099000600CBE016F5F7F4FCE014D960E94450DEA
:1009A000BC0185E793E00E94C70BCE014D960E94E3
:1009B000EF0BCE0101960E94EF0BD3CE429A81E05D
:1009C0008093B40240E050E06FEF70E080E090E090
:1009D0000E9484001092AE020E940E07C090AF02E7
:1009E000D090B002E090B102F090B2026C197D0993
:1009F0008E099F09603375478105910508F09BCEEC
:100A0000A5CEA3960FB6F894DEBF0FBECDBFDF9183
:100A1000CF911F91FF90EF90DF90CF900895CB0181
:100A20000C947515CB01642F0C947D15DC01189680
:100A30008D919C9119978617970769F019967C9369
:100A40006E9318975C96ED91FC915D97309719F035
:100A50001A968C91099408954F925F926F927F92AB
:100A6000AF92BF92CF92DF92EF92FF920F931F93BC
:100A7000CF93DF93EC01A12CA8C00A2D10E0EC81EC
:100A8000FD81E00FF11F60E080810E949407B12C8E
:100A900068018EC0EB2CF12C8F81E881F981EC0D7F
:100AA000FD1DB89EE00DF11D11249A8580819813DB
:100AB0003CC00E940E074E845F8468887988641960
:100AC0007509860997094A8C5B8C612C712C641519
:100AD00075058605970550F0EA81FB81EE0DFF1D37
:100AE00080810E947007882309F498C00E940E0735
:100AF0004E845F8468887988641975098609970926
:100B0000488C598C612C712C6415750586059705E8
:100B100008F493C0EA81FB81EB0DF11D80810E94F6
:100B20007007813009F089C07FC00E940E074E8493
:100B30005F84688879886419750986099709488CE3
:100B4000598C612C712C641575058605970578F113
:100B5000EA81FB81EE0DFF1D80810E9470078111EB
:100B600026C0EC81FD81E00FF11F61E080810E94D1
:100B700094072F812E9DC0012F9D900D1124E88197
:100B8000F981EC0DFD1DE80FF91FF0808E859F8522
:100B9000A889B9898A8B9B8BAC8BBD8B0E940E0771
:100BA0006E877F87888B998BF11015C005C0B39431
:100BB0008E81B81608F46ECFEC81FD81E00FF11F35
:100BC00061E080810E949407A3948F81A81608F4A5
:100BD00054CF80E040C08B85F81239C00E940E07C8
:100BE0000A891B892C893D89601B710B820B930B31
:100BF0000E891F8920E030E00617170728073907FC
:100C000010F525C081E090E09D878C87FA8661E031
:100C100070E0CE010E9416058A851DC063E070E079
:100C2000CE010E94160562CF62E070E0CE010E9404
:100C300016058A858B871A86BFCF88859985039785
:100C400009F0B5CFB9CF8C859D850196DDCF8A851A
:100C5000F812D8CFBECFDF91CF911F910F91FF90A7
:100C6000EF90DF90CF90BF90AF907F906F905F90AC
:100C70004F900895FF920F931F93CF93DF93EC0152
:100C8000F12C13C00F2D10E0EA81FB81E00FF11F62
:100C900060E080810E944207EA81FB81E00FF11F42
:100CA00061E080810E949407F3948E81F81650F3DE
:100CB000F12C13C00F2D10E0EC81FD81E00FF11F2E
:100CC00061E080810E944207EC81FD81E00FF11F0D
:100CD00061E080810E949407F3948F81F81650F3AD
:100CE000DF91CF911F910F91FF900895EF920F9395
:100CF000FC0153834283358324830683E782718317
:100D0000608316861786108A118A128A138A148ABB
:100D1000158A8CE291E0978B868B82E390E0918F2D
:100D2000808F88EE93E0938F828F158E148E1286BB
:100D300013861186108615861486CF010F91EF90C9
:100D40000C943A0680E480937C0087E880937A00D4
:100D50000895CF93DF931F92CDB7DEB790911D0119
:100D6000913031F489830E94A20610921D0189817D
:100D7000877020911E0140E4249F90011124822B52
:100D800080937C0080917A00806480937A008091C7
:100D90007A0086FDFCCF2091780030917900932F66
:100DA00080E0FC01E22B9F01C9010F90DF91CF9100
:100DB00008958091110390911203A0911303B091B3
:100DC000140330911003232F2D5F2D3720F401964B
:100DD000A11DB11D05C0232F2A570296A11DB11DCB
:100DE000209310038093110390931203A093130395
:100DF000B09314038091150390911603A0911703EB
:100E0000B09118030196A11DB11D80931503909315
:100E10001603A0931703B093180308950F931F931D
:100E20008FB7F894009111031091120320911303CE
:100E3000309114038FBFB801C9011F910F9108951C
:100E40008F929F92AF92BF92CF92DF92EF92FF92DA
:100E50006B017C010E940E074B015C010E940E0792
:100E6000681979098A099B096C157D058E059F050E
:100E7000A8F3FF90EF90DF90CF90BF90AF909F903E
:100E80008F900895982F977021E030E0092E01C0CF
:100E9000220F0A94EAF786958695869581F081302F
:100EA00089F0823091F08330D1F412C08081209596
:100EB000822302C08081822B80839FBF0895EAE253
:100EC000F0E008C0E7E2F0E005C0E4E2F0E002C0D4
:100ED000E1E2F0E09FB7F894662341F3EBCF089589
:100EE000982F977021E030E001C0220F9A95EAF721
:100EF00086958695869539F0813041F0823049F0AB
:100F0000833051F00895E9E2F0E008C0E6E2F0E055
:100F100005C0E3E2F0E002C0E0E2F0E0908192235D
:100F200081E009F480E00895982F977021E030E087
:100F3000092E01C0220F0A94EAF7869586958695B8
:100F400081F0813089F0823091F08330D1F412C089
:100F500080812095822302C08081822B80839FBF65
:100F60000895EBE2F0E008C0E8E2F0E005C0E5E259
:100F7000F0E002C0E2E2F0E09FB7F894662341F3AC
:100F8000EBCF08950E94160E0E949D000E943A0227
:100F9000FDCFFC0120893189C9010895DC015096FB
:100FA0002D913C915197232B49F05496ED91FC9152
:100FB0005597E80FF91F268930E002C02FEF3FEF69
:100FC000C9010895FC01118A108A158A148A138AAE
:100FD000128A0895FC0124813581C9010895FC011C
:100FE00024813581C9010895FC0180899189892B6B
:100FF000D1F03FB7F894808991890197918B808BCC
:1010000084899589DF01A80FB91F56962C91019606
:10101000803291051CF4958B848B02C0158A148A4A
:101020003FBF30E002C02FEF3FEFC9010895EF92BC
:10103000FF921F93CF93DF931F92CDB7DEB77C0152
:10104000D701DA968D919C91DB974097C8F71FB72F
:10105000F894D696ED91FC91D7970190F081E02D10
:10106000C701C6966983099569814097C8F4F7015D
:1010700082AD93AD019693AF82AF84AD95ADE80F8D
:10108000F91FE05CFF4F60830196D701DD969C93CA
:101090008E93DC97409724F0DD961C921E92DC978D
:1010A000F701EA5AFF4F0190F081E02D80818062C4
:1010B00080831FBF81E090E00F90DF91CF911F915F
:1010C000FF90EF900895665F7F4F680F791FCB0107
:1010D0000895665F7F4F680F791FCB010895665FA3
:1010E0007F4F680F791FCB010895665F7F4F680FB0
:1010F000791FCB0108951F920F920FB60F92112402
:101100002F938F939F93AF93BF93EF93FF93809110
:10111000AF039091B003892B21F1E091CF03F091BF
:10112000D0038091AF039091B00301979093B003E7
:101130008093AF038091B3039091B403DC01A55574
:10114000BC4F1A962C910196803191052CF4909306
:10115000B4038093B30304C01092B4031092B3039A
:1011600020838091AF039091B003892B31F4E091FB
:10117000CB03F091CC0388E98083FF91EF91BF917D
:10118000AF919F918F912F910F900FBE0F901F9055
:1011900018951F920F920FB60F9211242F938F93D1
:1011A0009F93AF93BF93EF93FF93809153039091DD
:1011B0005403892B21F1E0917303F0917403809122
:1011C00053039091540301979093540380935303D6
:1011D0008091570390915803DC01A15BBC4F1A9694
:1011E0002C910196803191052CF4909358038093B3
:1011F000570304C010925803109257032083809124
:10120000530390915403892B31F4E0916F03F091D3
:10121000700388E98083FF91EF91BF91AF919F9117
:101220008F912F910F900FBE0F901F901895FC017A
:10123000262F1382128248EE53E060E070E0448370
:101240005583668377838FE492E0918380838FE573
:1012500092E09587848780E290E097878687118A5D
:10126000108A158A148A138A128A89E692E097AB4B
:1012700086AB80E190E091AF80AF13AE12AE17AEB7
:1012800016AE15AE14AE222321F0213009F052C063
:1012900028C0DF01A05BBF4F85EC90E08D939C934D
:1012A000DF01AE5ABF4F84EC90E08D939C93DF0139
:1012B000AC5ABF4F80EC90E08D939C93DF01AA5A0B
:1012C000BF4F81EC90E08D939C93DF01A85ABF4FF4
:1012D00082EC90E08D939C93E65AFF4F86EC90E071
:1012E00027C0DF01A05BBF4F8DEC90E08D939C93F6
:1012F000DF01AE5ABF4F8CEC90E08D939C93DF01E1
:10130000AC5ABF4F88EC90E08D939C93DF01AA5AB2
:10131000BF4F89EC90E08D939C93DF01A85ABF4F9B
:101320008AEC90E08D939C93E65AFF4F8EEC90E010
:101330009183808308953F924F925F926F927F9244
:101340008F929F92AF92BF92CF92DF92EF92FF92D5
:101350000F931F93CF93DF93EC014A015B01122F90
:101360003E2C60E072E18AE790E0A50194010E94C2
:10137000781269017A0184E0C80ED11CE11CF11CCD
:1013800083E0F694E794D794C7948A95D1F760E008
:1013900074E284EF90E0A50194010E947812290183
:1013A0003A0194E0490E511C611C711C93E0769443
:1013B0006794579447949A95D1F7A30192014427D3
:1013C000552760E874E88EE190E00E949A12590176
:1013D000A818B908B7FE03C0B194A194B108A70139
:1013E00096014427552760E472E48FE090E00E9464
:1013F0009A122819390937FF03C03195219531090F
:10140000FE01EC5AFF4F0190F081E02DA216B306C9
:101410003CF482E08083620181E0C81AD10804C0F4
:10142000108291E0C91AD1081630C1F018F41530B5
:1014300099F405C0173029F0193071F404C080E028
:101440000EC084E00CC0FE01EA5AFF4F0190F0810B
:10145000E02D80818460808386E001C082E00230DC
:1014600009F4886091E0391621F092E0391204C045
:1014700002C0806301C08062FE01E85AFF4F019004
:10148000F081E02D8083FE01E05BFF4F0190F08151
:10149000E02DD082FE01EE5AFF4F0190F081E02D49
:1014A000C082CA5ADF4FE881F98188E98083DF91E1
:1014B000CF911F910F91FF90EF90DF90CF90BF9051
:1014C000AF909F908F907F906F905F904F903F90E4
:1014D00008950F931F93CF93DF931F92CDB7DEB77D
:1014E0008C01DC01ED91FC910190F081E02D69838C
:1014F000099569818097D0F4F801848195810196DE
:101500009583848386819781E80FF91F628701960E
:101510008032910534F4D80117969C938E931697D8
:1015200003C0F8011782168281E001C080E00F90AD
:10153000DF91CF911F910F9108951F920F920FB6D7
:101540000F9211242F933F934F935F936F937F9349
:101550008F939F93AF93BF93EF93FF93E0917303A8
:10156000F0917403608185E293E00E94690AFF9123
:10157000EF91BF91AF919F918F917F916F915F910B
:101580004F913F912F910F900FBE0F901F90189584
:101590001F920F920FB60F9211242F933F934F93E8
:1015A0005F936F937F938F939F93AF93BF93EF93CB
:1015B000FF93E091CF03F091D003608181E893E045
:1015C0000E94690AFF91EF91BF91AF919F918F9116
:1015D0007F916F915F914F913F912F910F900FBE2F
:1015E0000F901F90189560E085E793E00E9417091F
:1015F00061E089E193E00C9417091F93CF93DF9387
:10160000182FEB01209721F460E00E94940740E03E
:10161000143079F1153029F11630E9F1173099F1CC
:10162000133169F0143109F044C011C060E001C009
:1016300061E0812FDF91CF911F910C94940760E0BE
:1016400085E194E00E94EB10AE0160E007C061E02C
:1016500085E194E00E94EB10AE0161E085E194E049
:1016600023C060E083EF93E00E94EB10AE0160E0E6
:1016700007C061E083EF93E00E94EB10AE0161E0F0
:1016800083EF93E011C060E081ED93E00E94EB10E6
:10169000AE0160E007C061E081ED93E00E94EB10D5
:1016A000AE0161E081ED93E0DF91CF911F910C9449
:1016B0001811C038D10508F4B9CFBACFCF92DF9254
:1016C000EF92FF920F931F93CF93DF936C01EB0187
:1016D0007A01E60EF71E00E010E00BC06991D6011A
:1016E000ED91FC910190F081E02DC6010995080F64
:1016F000191FCE15DF0591F7C801DF91CF911F911A
:101700000F91FF90EF90DF90CF90089561157105D4
:1017100081F0DB010D900020E9F7AD014150510946
:10172000461B570BDC01ED91FC910280F381E02D0B
:10173000099480E090E00895DC01ED91FC91019026
:10174000F081E02D0994DC01ED91FC91DB01149610
:101750004D915C9115976D917C910280F381E02D04
:1017600009940F931F93CF93DF93EC016DE00E94D8
:101770009C0B8C016AE0CE010E949C0B9C01200F07
:10178000311FC901DF91CF911F910F9108950F93E0
:101790001F93CF93DF93EC010E94A30B8C01CE012A
:1017A0000E94B10B9C01200F311FC901DF91CF9125
:1017B0001F910F9108950F931F93CF93DF93EC0127
:1017C0000E94860B8C01CE010E94B10B9801280F5C
:1017D000391FC901DF91CF911F910F910895FC012D
:1017E000808191810C946B13CF93DF93EC018881FE
:1017F0009981009711F00E946B13198218821D8243
:101800001C821B821A82DF91CF9108950F931F9340
:10181000CF93DF93EC018B016F5F7F4F88819981BC
:101820000E940814009731F0998388831B830A83F0
:1018300081E001C080E0DF91CF911F910F91089569
:10184000CF93DF93EC0188819981892B31F08A81D4
:101850009B818617970708F00CC0CE010E94060CEA
:10186000882349F08C819D81892B19F4E881F981C5
:10187000108281E001C080E0DF91CF910895EF9266
:10188000FF920F931F93CF93DF93EC017B018A01AB
:10189000BA010E94200C811104C0CE010E94F40BF9
:1018A00007C01D830C83B701888199810E940D15A3
:1018B000CE01DF91CF911F910F91FF90EF9008958E
:1018C000DC0111961C921E9213961C921E92129786
:1018D00015961C921E92149716961C92611571050E
:1018E00059F0DB010D900020E9F7AD01415051099D
:1018F000461B570B0C943F0C0895CF93DF93EC01DC
:10190000FB018617970761F0608171816115710590
:1019100029F0448155810E943F0C02C00E94F40BC3
:10192000CE01DF91CF910895FC01118210821382C4
:1019300012821582148216820C947D0CCF93DF9351
:10194000D82FC92F6115710561F0DB010D900020C2
:10195000E9F7AD0141505109461B570B0E943F0C5E
:1019600002C00E94F40B8D2F9C2FDF91CF91089520
:101970000F931F93CF93DF93CDB7DEB729970FB6A1
:10198000F894DEBF0FBECDBF8C01862FF801118207
:1019900010821382128215821482168250E0BE01D8
:1019A0006F5F7F4F90E00E945F15BE016F5F7F4FBA
:1019B000C8010E949E0C29960FB6F894DEBF0FBE98
:1019C000CDBFDF91CF911F910F910895CF93DF93FA
:1019D00000D0CDB7DEB7FC011182108213821282D3
:1019E00015821482168269831A82BE016F5F7F4F4F
:1019F0000E949E0C0F900F90DF91CF910895EF926F
:101A0000FF920F931F93CF93DF93EC017B010C8127
:101A10001D816115710511F480E016C04115510555
:101A200091F0040F151FB8010E94200C8823A1F328
:101A3000288139818C819D81B701820F931F0E947B
:101A40000D151D830C8381E0DF91CF911F910F91C4
:101A5000FF90EF900895FB01448155816081718171
:101A60000C94FF0CCF93DF9300D0CDB7DEB7698322
:101A70001A8241E050E0BE016F5F7F4F0E94FF0C71
:101A80000F900F90DF91CF910895CF93DF93D82FD0
:101A9000C92FFB0144815581608171810E94FF0C37
:101AA000811104C08D2F9C2F0E94F40B8D2F9C2F31
:101AB000DF91CF910895CF93DF93DC01ED91FC91FD
:101AC000EB01A881B981309711F01097C9F41097F4
:101AD00059F0EB012C813D81232B31F02C9130E02A
:101AE00031952195310914C0309781F0DC011496AD
:101AF0008D919C911597892B49F0208130E008C089
:101B0000BD01CF01DF91CF910C94041520E030E0AE
:101B1000C901DF91CF910895FC0144815581FB01FA
:101B2000248135814217530729F40E945B0D21E07F
:101B3000892B09F020E0822F0895DC0114962D9165
:101B40003C911597232B39F481E06115710511F053
:101B5000FB0108C00895DC01ED91FC916115710550
:101B600029F481E09081992349F007C0CF010E94B8
:101B700004159C0181E0232B09F080E00895FC010D
:101B800084819581DB0114964D915C9115978417A2
:101B90009507A0F0208131812115310579F06D91F3
:101BA0007C916115710551F0841B950B820F931F79
:101BB0000E9404159C0181E0232B09F080E0089528
:101BC0000F931F93CF93DF93EB0141155105E9F07C
:101BD0002097D9F0FC01048115812017310708F006
:101BE00013C041505109021B130B4017510708F451
:101BF0008A01FC0160817181620F731FA801CE010F
:101C00000E941415C00FD11F1882DF91CF911F9130
:101C10000F910895FC0180819181009711F00C943F
:101C2000D41460E070E080E090E0089563E085E126
:101C300094E00E94D51021E049ED56E060E085E196
:101C400094E00E94AB1064E085E194E00E94D80F1C
:101C500061E083EF93E00E94D51064E083EF93E0AE
:101C60000E94D80F61E081ED93E00E94D51064E0FE
:101C700081ED93E00E94D80F789408951F920F92FF
:101C80000FB60F9211242F933F934F935F936F934F
:101C90007F938F939F93AF93BF93EF93FF93E091C5
:101CA0002F04F0913004309709F00995FF91EF91DE
:101CB000BF91AF919F918F917F916F915F914F9164
:101CC0003F912F910F900FBE0F901F9018951F926C
:101CD0000F920FB60F9211242F933F934F935F9360
:101CE0006F937F938F939F93AF93BF93EF93FF93E4
:101CF000E0913104F0913204309709F00995FF9199
:101D0000EF91BF91AF919F918F917F916F915F9173
:101D10004F913F912F910F900FBE0F901F901895EC
:101D20001F920F920FB60F9211242F933F934F9350
:101D30005F936F937F938F939F93AF93BF93EF9333
:101D4000FF93E0912D04F0912E04309709F009954E
:101D5000FF91EF91BF91AF919F918F917F916F9183
:101D60005F914F913F912F910F900FBE0F901F9059
:101D700018951F920F920FB60F9211242F933F9335
:101D80004F935F936F937F938F939F93AF93BF9383
:101D9000EF93FF93E091EB03F091EC03309709F0A0
:101DA0000995FF91EF91BF91AF919F918F917F9195
:101DB0006F915F914F913F912F910F900FBE0F90B8
:101DC0001F9018951F920F920FB60F9211242F9308
:101DD0003F934F935F936F937F938F939F93AF93B3
:101DE000BF93EF93FF93E091ED03F091EE033097F3
:101DF00009F00995FF91EF91BF91AF919F918F915C
:101E00007F916F915F914F913F912F910F900FBEF6
:101E10000F901F9018951F920F920FB60F921124DA
:101E20002F933F934F935F936F937F938F939F93E2
:101E3000AF93BF93EF93FF93E091E903F091EA032F
:101E4000309709F00995FF91EF91BF91AF919F9164
:101E50008F917F916F915F914F913F912F910F9053
:101E60000FBE0F901F9018951F920F920FB60F92F2
:101E700011242F933F934F935F936F937F938F938F
:101E80009F93AF93BF93EF93FF93E0910D04F09175
:101E90000E04309709F00995FF91EF91BF91AF9132
:101EA0009F918F917F916F915F914F913F912F9172
:101EB0000F900FBE0F901F9018951F920F920FB6A4
:101EC0000F9211242F933F934F935F936F937F93C0
:101ED0008F939F93AF93BF93EF93FF93E0910F0482
:101EE000F0911004309709F00995FF91EF91BF919F
:101EF000AF919F918F917F916F915F914F913F91A2
:101F00002F910F900FBE0F901F9018951F920F9258
:101F10000FB60F9211242F933F934F935F936F93BC
:101F20007F938F939F93AF93BF93EF93FF93E09132
:101F30000B04F0910C04309709F00995FF91EF9193
:101F4000BF91AF919F918F917F916F915F914F91D1
:101F50003F912F910F900FBE0F901F9018951F92D9
:101F60000F920FB60F9211242F933F934F935F93CD
:101F70006F937F938F939F93AF93BF93EF93FF9351
:101F8000E0911304F0911404309709F00995FF9142
:101F9000EF91BF91AF919F918F917F916F915F91E1
:101FA0004F913F912F910F900FBE0F901F9018955A
:101FB000DC012C916150223039F4673068F4E62F4F
:101FC000F0E0E159FD4F06C0693030F4E62FF0E053
:101FD000EA58FD4F208101C020E0DC011A96ED9106
:101FE000FC911B978081887F822B80830895CF93FB
:101FF000DF93EC016883613011F120F0623009F069
:102000006CC048C01B821A8286E490E09D838C835A
:102010008EE690E09F838E8384E490E099878887A2
:1020200085E490E09B878A871D861C8687E490E084
:102030009F878E87198A188A88E490E022C08FE6ED
:1020400090E09F838E8385E890E09B838A8384E879
:1020500090E09D838C8380E890E09987888781E871
:1020600090E09B878A8789E890E09D878C8788E845
:1020700090E09F878E878BE890E0998B888B8AE829
:1020800090E09B8B8A8B1D8A1C8A1F8A1E8A82E0A5
:10209000898323C01B821A8282EB90E09D838C830C
:1020A00080E790E09F838E8380EB90E0998788871C
:1020B00081EB90E09B878A871D861C8683EB90E0EE
:1020C0009F878E87198A188A84EB90E09B8B8A8B76
:1020D0001D8A1C8A1F8A1E8A698360E0CE010E94C5
:1020E000D80FEA81FB81309709F01082EC81FD81E5
:1020F0001082198E188E1B8E1A8E1D8E1C8E1F8EAE
:102100001E8E19A218A2DF91CF91089551E04111BE
:1021100001C050E06530F0F4E62FF0E0E158FD4FEB
:10212000408147FD17C0DC011696ED91FC91179791
:10213000808121E030E0042E01C0220F0A94EAF7EA
:1021400020952823852F042E01C0880F0A94EAF7D2
:10215000282B20830895623099F028F4662341F0FB
:102160006130C9F409C0633079F06430A1F410C063
:10217000FC01518F408F0FC0FC01538F428F0BC069
:10218000FC01558F448F07C0FC01578F468F03C059
:10219000FC0151A340A3452B11F440E003C02223CE
:1021A00019F041E00C9486100895DC011896ED9129
:1021B000FC9119973081262F23703C7F232B20839D
:1021C0001A96ED91FC911B9780816C70660F877E4B
:1021D000682B60830895FC018181681740F5908128
:1021E000992311F0923011F4813049F0662329F0DF
:1021F000613029F0623031F404C026E003C024E0ED
:1022000001C022E00084F185E02D308183E090E080
:10221000022E01C0880F0A94EAF780958323437049
:10222000022E01C0440F0A94EAF7842B808308959C
:10223000FC0181816817F8F4611109C0A485B58596
:10224000109709F05C930684F785E02D13C0613088
:1022500049F4A089B189109709F05C930288F38949
:10226000E02D08C0623039F4A489B5895C930688F2
:10227000F789E02D4083089560E085E194E00E94B5
:10228000F70F61E083EF93E00E94F70F62E081EDCA
:1022900093E00C94F70F40D008F481E00895E8949F
:1022A00009C097FB3EF490958095709561957F4F9E
:1022B0008F4F9F4F9923A9F0F92F96E9BB2793954C
:1022C000F695879577956795B795F111F8CFFAF45C
:1022D000BB0F11F460FF1BC06F5F7F4F8F4F9F4F8D
:1022E00016C0882311F096E911C0772321F09EE8EB
:1022F000872F762F05C0662371F096E8862F70E051
:1023000060E02AF09A95660F771F881FDAF7880F2A
:102310009695879597F90895990F0008550FAA0B80
:10232000E0E8FEEF16161706E807F907C0F01216E8
:102330001306E407F50798F0621B730B840B950BEB
:1023400039F40A2661F0232B242B252B21F4089540
:102350000A2609F4A140A6958FEF811D811D0895DD
:1023600097F99F6780E870E060E008959FEF80EC48
:10237000089500240A9416161706180609060895EB
:1023800000240A9412161306140605060895092E51
:102390000394000C11F4882352F0BB0F40F4BF2BC0
:1023A00011F460FF04C06F5F7F4F8F4F9F4F089500
:1023B00057FD9058440F551F59F05F3F71F04795F6
:1023C000880F97FB991F61F09F3F79F087950895DB
:1023D000121613061406551FF2CF4695F1DF08C0FA
:1023E000161617061806991FF1CF86957105610517
:1023F00008940895E894BB2766277727CB0197F9BF
:1024000008950BD0C4CFB5DF28F0BADF18F09523BC
:1024100009F0A6CFABCF1124EECFCADFA0F3959F72
:10242000D1F3950F50E0551F629FF001729FBB27BB
:10243000F00DB11D639FAA27F00DB11DAA1F649F67
:102440006627B00DA11D661F829F2227B00DA11D1A
:10245000621F739FB00DA11D621F839FA00D611DA0
:10246000221F749F3327A00D611D231F849F600DC1
:10247000211D822F762F6A2F11249F5750408AF0FA
:10248000E1F088234AF0EE0FFF1FBB1F661F771F86
:10249000881F91505040A9F79E3F510570F060CFC2
:1024A000AACF5F3FECF3983EDCF38695779567956E
:1024B000B795F795E7959F5FC1F7FE2B880F911DA4
:1024C0009695879597F9089597FB072E16F4009433
:1024D00007D077FD09D00E94B61207FC05D03EF464
:1024E000909581959F4F0895709561957F4F0895C0
:1024F000A1E21A2EAA1BBB1BFD010DC0AA1FBB1F08
:10250000EE1FFF1FA217B307E407F50720F0A21B79
:10251000B30BE40BF50B661F771F881F991F1A94E6
:1025200069F760957095809590959B01AC01BD0110
:10253000CF010895052E97FB16F4009407D057FDA0
:102540000DD00E94781207FC09D07EF490958095FA
:10255000709561957F4F8F4F9F4F0895509540958F
:10256000309521953F4F4F4F5F4F0895AA1BBB1BDE
:1025700051E107C0AA1FBB1FA617B70710F0A61B83
:10258000B70B881F991F5A95A9F780959095BC01A4
:10259000CD010895EE0FFF1F0590F491E02D0994F1
:1025A0000F931F93CF93DF938230910510F482E055
:1025B00090E0E0913904F0913A0420E030E0C0E08E
:1025C000D0E023C04081518148175907A8F048172F
:1025D000590761F482819381209719F09B838A8344
:1025E0002EC090933A048093390429C021153105F7
:1025F00029F04217530710F0A90102C0BE01DF0104
:1026000002811381EF019A01F8013097D9F6211563
:10261000310509F1281B390B2430310590F412964D
:102620008D919C9113976115710521F0FB019383A6
:10263000828304C090933A0480933904FD0132965A
:1026400044C0FD01E20FF31F8193919322503109A1
:102650002D933C933AC02091370430913804232BBA
:1026600041F420910201309103013093380420930A
:10267000370420910001309101012115310541F409
:102680002DB73EB74091040150910501241B350B35
:10269000E0913704F0913804E217F307A0F42E1B01
:1026A0003F0B2817390778F0AC014E5F5F4F2417B6
:1026B000350748F04E0F5F1F50933804409337049E
:1026C0008193919302C0E0E0F0E0CF01DF91CF91E0
:1026D0001F910F910895EF92FF920F931F93CF9345
:1026E000DF93009709F48FC0DC01129713961C92B8
:1026F0001E921297E0903904F0903A04E114F1042C
:1027000089F42D913C911197280F391F809137043E
:10271000909138048217930789F5B0933804A093F9
:10272000370471C0E70120E030E001C0EA01CA17B8
:10273000DB0738F44A815B819E0141155105B1F7F1
:1027400022C0BC0162507109FB01D383C2830081A6
:102750001181AC01400F511F4C175D0761F4488196
:102760005981400F511F4E5F5F4F518340834A8113
:102770005B81538342832115310529F4B0933A04D8
:10278000A093390440C0F901B383A283E9016991A0
:102790007991C60FD71FAC17BD0779F4DC015E91A4
:1027A0004E91460F571F4E5F5F4F518340831296E5
:1027B0008D919C91139793838283A0E0B0E002C037
:1027C000D7017C01F701828193810097C9F7C70186
:1027D000029620813181820F931F2091370430911E
:1027E00038042817390779F4109729F410923A041D
:1027F0001092390404C013961C921E921297F09204
:102800003804E0923704CDB7DEB7E6E00C94C31588
:10281000A0E0B0E0EEE0F4E10C94A115EC0100972B
:1028200029F4CB010E94D012EC01B8C0DC01A60F44
:10283000B71FFC013297AE17BF0718F4C0E0D0E015
:10284000ADC00081118106171707B0F005301105E2
:1028500008F4A4C0C80104978617970708F49EC01F
:1028600002501109061B170B0D931D937183608392
:10287000CD010E946B1392C07B01E01AF10A5C014A
:10288000A00EB11EE0913904F0913A04812C912CF4
:1028900080E090E04CC0EA15FB05F1F540815181E4
:1028A0006A0122E0C20ED11CCE14DF04A8F19A0105
:1028B0002E193F097901690132E0C30ED11C2EEFB8
:1028C000A22EBB24BA94AC0EBD1E25E0C216D104C4
:1028D00078F04281538113965C934E931297119630
:1028E000FC92EE92F501718360833A2F2B2F09C081
:1028F0000E5F1F4F040F151FD5010D931C933281DE
:102900002381009721F0FC013283238347C0309359
:10291000390420933A0442C0808191818816990637
:1029200008F44C0152814381CF01E52FF42F3097F9
:1029300009F0B1CF80913704909138048A159B0536
:10294000F1F486169706D8F4809100019091010168
:10295000009741F48DB79EB7209104013091050195
:10296000821B930BA817B90708F068CFB0933804FF
:10297000A0933704FE013297718360830FC0CB01AF
:102980000E94D0127C01009709F458CFA801BE0123
:102990000E94FB14CE010E946B13E701CE01CDB75C
:1029A000DEB7ECE00C94BD151F93FC019927882736
:1029B000BC01E89411911032E9F3193010F01E3087
:1029C000C8F31B3251F01D3249F4689406C00E94CE
:1029D0004A15610F711D811D911D119110531A30FF
:1029E000B0F33EF490958095709561957F4F8F4F31
:1029F0009F4F1F910895FB01DC0102C001900D92D1
:102A000041505040D8F70895FB01DC018D910190B1
:102A100080190110D9F3990B0895FB01DC01019095
:102A20000D920020E1F70895FB01DC014150504078
:102A300048F001900D920020C9F701C01D9241504D
:102A40005040E0F70895FA01A191B081009719F480
:102A50001097E1F0CD01DC01CD010D90002011F4C3
:102A6000C00113C0FB012191222319F02015D9F7D1
:102A7000F3CFFB012191201519F41E92119606C087
:102A80002223C1F70D900020A1F7D001FA01A193F4
:102A9000B0830895592F482F372F262F660F771FA1
:102AA000881F991F660F771F881F991F620F731F5A
:102AB000841F951F660F771F881F991F0895FB01BC
:102AC0009F01423074F0453264F4642F77270E94EE
:102AD000B612805D8A330CF0895D8193CB0100973B
:102AE000A1F71082C9010C948B15F999FECF92BD04
:102AF00081BDF89A992780B50895262FF999FECFC0
:102B00001FBA92BD81BD20BD0FB6F894FA9AF99A0A
:102B10000FBE01960895DC01FC01672F71917723A8
:102B2000E1F7329704C07C916D9370836291AE1788
:102B3000BF07C8F308952F923F924F925F926F9212
:102B40007F928F929F92AF92BF92CF92DF92EF923D
:102B5000FF920F931F93CF93DF93CDB7DEB7CA1BBE
:102B6000DB0B0FB6F894DEBF0FBECDBF09942A88E9
:102B7000398848885F846E847D848C849B84AA8491
:102B8000B984C884DF80EE80FD800C811B81AA811E
:102B9000B981CE0FD11D0FB6F894DEBF0FBECDBFE9
:102BA000ED01089510E0C2E8D0E004C0FE010E94EB
:0E2BB000CC122296C438D107C9F7F894FFCF93
:102BBE0000003B04200005040309080706313233E8
:102BCE003435363738392A302302000E0001013BE6
:102BDE000031323334003536373800373737370067
:102BEE003636363600536520726563696265004479
:102BFE006F6F72206F70656E6564212100446F6F78
:102C0E0072206F70656E656420666F7220746F6FD0
:102C1E00206C6F6E672100446F6F7220636C6F7350
:102C2E0065642121004D6F74696F6E204465746573
:102C3E0063746564004E756D626572206F66206107
:102C4E007474656D7074732065786365656465640E
:102C5E00002A00446F6F7220636C6F7365640023EB
:102C6E0000417474656D70742064656C6574656480
:102C7E000053797374656D206C6F636B65640053DC
:102C8E00797374656D20756E6C6F636B6564004D42
:102C9E006F74696F6E20646574656374656421007A
:102CAE004D6F74696F6E20656E64656421004445D6
:102CBE004C4554455F414C4C005550444154455F82
:102CCE0050415353574F52440044454C4554455F71
:102CDE0050415353574F5244004144445F50415367
:102CEE0053574F5244004E756D626572206F6620C9
:102CFE00617474656D7074733A20000000000017E3
:102D0E00085E0BC907CE07F407E20700000000EFCC
:102D1E00076F08750800000000EA076308690801DC
:102D2E00020304050607010200030004050607005E
:042D3E000102030586
:00000001FF
